{
  "_format": "hh-sol-artifact-1",
  "contractName": "BuddhaNft",
  "sourceName": "contracts/BuddhaNft.sol",
  "abi": [
    {
      "inputs": [],
      "stateMutability": "nonpayable",
      "type": "constructor"
    },
    {
      "anonymous": false,
      "inputs": [
        {
          "indexed": true,
          "internalType": "address",
          "name": "owner",
          "type": "address"
        },
        {
          "indexed": true,
          "internalType": "address",
          "name": "approved",
          "type": "address"
        },
        {
          "indexed": true,
          "internalType": "uint256",
          "name": "tokenId",
          "type": "uint256"
        }
      ],
      "name": "Approval",
      "type": "event"
    },
    {
      "anonymous": false,
      "inputs": [
        {
          "indexed": true,
          "internalType": "address",
          "name": "owner",
          "type": "address"
        },
        {
          "indexed": true,
          "internalType": "address",
          "name": "operator",
          "type": "address"
        },
        {
          "indexed": false,
          "internalType": "bool",
          "name": "approved",
          "type": "bool"
        }
      ],
      "name": "ApprovalForAll",
      "type": "event"
    },
    {
      "anonymous": false,
      "inputs": [
        {
          "indexed": true,
          "internalType": "bytes32",
          "name": "role",
          "type": "bytes32"
        },
        {
          "indexed": true,
          "internalType": "bytes32",
          "name": "previousAdminRole",
          "type": "bytes32"
        },
        {
          "indexed": true,
          "internalType": "bytes32",
          "name": "newAdminRole",
          "type": "bytes32"
        }
      ],
      "name": "RoleAdminChanged",
      "type": "event"
    },
    {
      "anonymous": false,
      "inputs": [
        {
          "indexed": true,
          "internalType": "bytes32",
          "name": "role",
          "type": "bytes32"
        },
        {
          "indexed": true,
          "internalType": "address",
          "name": "account",
          "type": "address"
        },
        {
          "indexed": true,
          "internalType": "address",
          "name": "sender",
          "type": "address"
        }
      ],
      "name": "RoleGranted",
      "type": "event"
    },
    {
      "anonymous": false,
      "inputs": [
        {
          "indexed": true,
          "internalType": "bytes32",
          "name": "role",
          "type": "bytes32"
        },
        {
          "indexed": true,
          "internalType": "address",
          "name": "account",
          "type": "address"
        },
        {
          "indexed": true,
          "internalType": "address",
          "name": "sender",
          "type": "address"
        }
      ],
      "name": "RoleRevoked",
      "type": "event"
    },
    {
      "anonymous": false,
      "inputs": [
        {
          "indexed": true,
          "internalType": "address",
          "name": "from",
          "type": "address"
        },
        {
          "indexed": true,
          "internalType": "address",
          "name": "to",
          "type": "address"
        },
        {
          "indexed": true,
          "internalType": "uint256",
          "name": "tokenId",
          "type": "uint256"
        }
      ],
      "name": "Transfer",
      "type": "event"
    },
    {
      "inputs": [],
      "name": "DEFAULT_ADMIN_ROLE",
      "outputs": [
        {
          "internalType": "bytes32",
          "name": "",
          "type": "bytes32"
        }
      ],
      "stateMutability": "view",
      "type": "function"
    },
    {
      "inputs": [],
      "name": "MINTER_ROLE",
      "outputs": [
        {
          "internalType": "bytes32",
          "name": "",
          "type": "bytes32"
        }
      ],
      "stateMutability": "view",
      "type": "function"
    },
    {
      "inputs": [
        {
          "internalType": "address",
          "name": "to",
          "type": "address"
        },
        {
          "internalType": "uint256",
          "name": "tokenId",
          "type": "uint256"
        }
      ],
      "name": "approve",
      "outputs": [],
      "stateMutability": "nonpayable",
      "type": "function"
    },
    {
      "inputs": [
        {
          "internalType": "address",
          "name": "owner",
          "type": "address"
        }
      ],
      "name": "balanceOf",
      "outputs": [
        {
          "internalType": "uint256",
          "name": "",
          "type": "uint256"
        }
      ],
      "stateMutability": "view",
      "type": "function"
    },
    {
      "inputs": [
        {
          "internalType": "uint256",
          "name": "tokenId",
          "type": "uint256"
        }
      ],
      "name": "getApproved",
      "outputs": [
        {
          "internalType": "address",
          "name": "",
          "type": "address"
        }
      ],
      "stateMutability": "view",
      "type": "function"
    },
    {
      "inputs": [
        {
          "internalType": "bytes32",
          "name": "role",
          "type": "bytes32"
        }
      ],
      "name": "getRoleAdmin",
      "outputs": [
        {
          "internalType": "bytes32",
          "name": "",
          "type": "bytes32"
        }
      ],
      "stateMutability": "view",
      "type": "function"
    },
    {
      "inputs": [],
      "name": "getTotalSupply",
      "outputs": [
        {
          "internalType": "uint256",
          "name": "",
          "type": "uint256"
        }
      ],
      "stateMutability": "view",
      "type": "function"
    },
    {
      "inputs": [
        {
          "internalType": "bytes32",
          "name": "role",
          "type": "bytes32"
        },
        {
          "internalType": "address",
          "name": "account",
          "type": "address"
        }
      ],
      "name": "grantRole",
      "outputs": [],
      "stateMutability": "nonpayable",
      "type": "function"
    },
    {
      "inputs": [
        {
          "internalType": "bytes32",
          "name": "role",
          "type": "bytes32"
        },
        {
          "internalType": "address",
          "name": "account",
          "type": "address"
        }
      ],
      "name": "hasRole",
      "outputs": [
        {
          "internalType": "bool",
          "name": "",
          "type": "bool"
        }
      ],
      "stateMutability": "view",
      "type": "function"
    },
    {
      "inputs": [
        {
          "internalType": "address",
          "name": "owner",
          "type": "address"
        },
        {
          "internalType": "address",
          "name": "operator",
          "type": "address"
        }
      ],
      "name": "isApprovedForAll",
      "outputs": [
        {
          "internalType": "bool",
          "name": "",
          "type": "bool"
        }
      ],
      "stateMutability": "view",
      "type": "function"
    },
    {
      "inputs": [
        {
          "internalType": "address",
          "name": "user",
          "type": "address"
        },
        {
          "internalType": "string",
          "name": "_tokenURI",
          "type": "string"
        }
      ],
      "name": "mintItem",
      "outputs": [
        {
          "internalType": "uint256",
          "name": "",
          "type": "uint256"
        }
      ],
      "stateMutability": "nonpayable",
      "type": "function"
    },
    {
      "inputs": [],
      "name": "name",
      "outputs": [
        {
          "internalType": "string",
          "name": "",
          "type": "string"
        }
      ],
      "stateMutability": "view",
      "type": "function"
    },
    {
      "inputs": [
        {
          "internalType": "uint256",
          "name": "tokenId",
          "type": "uint256"
        }
      ],
      "name": "ownerOf",
      "outputs": [
        {
          "internalType": "address",
          "name": "",
          "type": "address"
        }
      ],
      "stateMutability": "view",
      "type": "function"
    },
    {
      "inputs": [
        {
          "internalType": "bytes32",
          "name": "role",
          "type": "bytes32"
        },
        {
          "internalType": "address",
          "name": "account",
          "type": "address"
        }
      ],
      "name": "renounceRole",
      "outputs": [],
      "stateMutability": "nonpayable",
      "type": "function"
    },
    {
      "inputs": [
        {
          "internalType": "bytes32",
          "name": "role",
          "type": "bytes32"
        },
        {
          "internalType": "address",
          "name": "account",
          "type": "address"
        }
      ],
      "name": "revokeRole",
      "outputs": [],
      "stateMutability": "nonpayable",
      "type": "function"
    },
    {
      "inputs": [
        {
          "internalType": "address",
          "name": "to",
          "type": "address"
        }
      ],
      "name": "safeMint",
      "outputs": [],
      "stateMutability": "nonpayable",
      "type": "function"
    },
    {
      "inputs": [
        {
          "internalType": "address",
          "name": "from",
          "type": "address"
        },
        {
          "internalType": "address",
          "name": "to",
          "type": "address"
        },
        {
          "internalType": "uint256",
          "name": "tokenId",
          "type": "uint256"
        }
      ],
      "name": "safeTransferFrom",
      "outputs": [],
      "stateMutability": "nonpayable",
      "type": "function"
    },
    {
      "inputs": [
        {
          "internalType": "address",
          "name": "from",
          "type": "address"
        },
        {
          "internalType": "address",
          "name": "to",
          "type": "address"
        },
        {
          "internalType": "uint256",
          "name": "tokenId",
          "type": "uint256"
        },
        {
          "internalType": "bytes",
          "name": "_data",
          "type": "bytes"
        }
      ],
      "name": "safeTransferFrom",
      "outputs": [],
      "stateMutability": "nonpayable",
      "type": "function"
    },
    {
      "inputs": [
        {
          "internalType": "address",
          "name": "operator",
          "type": "address"
        },
        {
          "internalType": "bool",
          "name": "approved",
          "type": "bool"
        }
      ],
      "name": "setApprovalForAll",
      "outputs": [],
      "stateMutability": "nonpayable",
      "type": "function"
    },
    {
      "inputs": [
        {
          "internalType": "bytes4",
          "name": "interfaceId",
          "type": "bytes4"
        }
      ],
      "name": "supportsInterface",
      "outputs": [
        {
          "internalType": "bool",
          "name": "",
          "type": "bool"
        }
      ],
      "stateMutability": "view",
      "type": "function"
    },
    {
      "inputs": [],
      "name": "symbol",
      "outputs": [
        {
          "internalType": "string",
          "name": "",
          "type": "string"
        }
      ],
      "stateMutability": "view",
      "type": "function"
    },
    {
      "inputs": [
        {
          "internalType": "uint256",
          "name": "index",
          "type": "uint256"
        }
      ],
      "name": "tokenByIndex",
      "outputs": [
        {
          "internalType": "uint256",
          "name": "",
          "type": "uint256"
        }
      ],
      "stateMutability": "view",
      "type": "function"
    },
    {
      "inputs": [
        {
          "internalType": "address",
          "name": "owner",
          "type": "address"
        },
        {
          "internalType": "uint256",
          "name": "index",
          "type": "uint256"
        }
      ],
      "name": "tokenOfOwnerByIndex",
      "outputs": [
        {
          "internalType": "uint256",
          "name": "",
          "type": "uint256"
        }
      ],
      "stateMutability": "view",
      "type": "function"
    },
    {
      "inputs": [
        {
          "internalType": "uint256",
          "name": "tokenId",
          "type": "uint256"
        }
      ],
      "name": "tokenURI",
      "outputs": [
        {
          "internalType": "string",
          "name": "",
          "type": "string"
        }
      ],
      "stateMutability": "view",
      "type": "function"
    },
    {
      "inputs": [],
      "name": "totalSupply",
      "outputs": [
        {
          "internalType": "uint256",
          "name": "",
          "type": "uint256"
        }
      ],
      "stateMutability": "view",
      "type": "function"
    },
    {
      "inputs": [
        {
          "internalType": "address",
          "name": "from",
          "type": "address"
        },
        {
          "internalType": "address",
          "name": "to",
          "type": "address"
        },
        {
          "internalType": "uint256",
          "name": "tokenId",
          "type": "uint256"
        }
      ],
      "name": "transferFrom",
      "outputs": [],
      "stateMutability": "nonpayable",
      "type": "function"
    }
  ],
  "bytecode": "0x60806040523480156200001157600080fd5b50604080518082018252600a815269109d59191a184b53919560b21b60208083019182528351808501909452600684526542554444484160d01b908401528151919291620000629160009162000144565b5080516200007890600190602084019062000144565b506200008a9150600090503362000090565b62000227565b6200009c8282620000a0565b5050565b6000828152600b602090815260408083206001600160a01b038516845290915290205460ff166200009c576000828152600b602090815260408083206001600160a01b03851684529091529020805460ff19166001179055620001003390565b6001600160a01b0316816001600160a01b0316837f2f8788117e7eff1d82e926ec794901d17c78024a50270940304540a733656f0d60405160405180910390a45050565b8280546200015290620001ea565b90600052602060002090601f016020900481019282620001765760008555620001c1565b82601f106200019157805160ff1916838001178555620001c1565b82800160010185558215620001c1579182015b82811115620001c1578251825591602001919060010190620001a4565b50620001cf929150620001d3565b5090565b5b80821115620001cf5760008155600101620001d4565b600181811c90821680620001ff57607f821691505b602082108114156200022157634e487b7160e01b600052602260045260246000fd5b50919050565b61223b80620002376000396000f3fe608060405234801561001057600080fd5b506004361061018e5760003560e01c80634f6ccce7116100de578063a22cb46511610097578063c87b56dd11610071578063c87b56dd14610358578063d53913931461036b578063d547741f14610392578063e985e9c5146103a557600080fd5b8063a22cb4651461032a578063b88d4fde1461033d578063c4e41b221461035057600080fd5b80634f6ccce7146102ce5780636352211e146102e157806370a08231146102f457806391d148541461030757806395d89b411461031a578063a217fddf1461032257600080fd5b806323b872dd1161014b5780632f745c59116101255780632f745c591461028257806336568abe1461029557806340d097c3146102a857806342842e0e146102bb57600080fd5b806323b872dd14610239578063248a9ca31461024c5780632f2ff15d1461026f57600080fd5b806301ffc9a71461019357806306fdde03146101bb578063081812fc146101d0578063095ea7b3146101fb578063110bcd451461021057806318160ddd14610231575b600080fd5b6101a66101a1366004611ea3565b6103e1565b60405190151581526020015b60405180910390f35b6101c36103f2565b6040516101b29190611fe8565b6101e36101de366004611e69565b610484565b6040516001600160a01b0390911681526020016101b2565b61020e610209366004611e40565b610511565b005b61022361021e366004611de1565b610627565b6040519081526020016101b2565b600854610223565b61020e610247366004611cf3565b61064f565b61022361025a366004611e69565b6000908152600b602052604090206001015490565b61020e61027d366004611e81565b610680565b610223610290366004611e40565b6106a5565b61020e6102a3366004611e81565b61073b565b61020e6102b6366004611ca7565b6107b9565b61020e6102c9366004611cf3565b61080f565b6102236102dc366004611e69565b61082a565b6101e36102ef366004611e69565b6108cb565b610223610302366004611ca7565b610942565b6101a6610315366004611e81565b6109c9565b6101c36109f4565b610223600081565b61020e610338366004611da7565b610a03565b61020e61034b366004611d2e565b610a0e565b610223610a46565b6101c3610366366004611e69565b610a56565b6102237f9f2df0fed2c77648de5860a4cc508cd0818c85b8b8a1ab4ceeef8d981c8956a681565b61020e6103a0366004611e81565b610a61565b6101a66103b3366004611cc1565b6001600160a01b03918216600090815260056020908152604080832093909416825291909152205460ff1690565b60006103ec82610a86565b92915050565b60606000805461040190612143565b80601f016020809104026020016040519081016040528092919081815260200182805461042d90612143565b801561047a5780601f1061044f5761010080835404028352916020019161047a565b820191906000526020600020905b81548152906001019060200180831161045d57829003601f168201915b5050505050905090565b600061048f82610aab565b6104f55760405162461bcd60e51b815260206004820152602c60248201527f4552433732313a20617070726f76656420717565727920666f72206e6f6e657860448201526b34b9ba32b73a103a37b5b2b760a11b60648201526084015b60405180910390fd5b506000908152600460205260409020546001600160a01b031690565b600061051c826108cb565b9050806001600160a01b0316836001600160a01b0316141561058a5760405162461bcd60e51b815260206004820152602160248201527f4552433732313a20617070726f76616c20746f2063757272656e74206f776e656044820152603960f91b60648201526084016104ec565b336001600160a01b03821614806105a657506105a681336103b3565b6106185760405162461bcd60e51b815260206004820152603860248201527f4552433732313a20617070726f76652063616c6c6572206973206e6f74206f7760448201527f6e6572206e6f7220617070726f76656420666f7220616c6c000000000000000060648201526084016104ec565b6106228383610ac8565b505050565b600080610633600c5490565b905061063e846107b9565b6106488184610b36565b9392505050565b6106593382610bc1565b6106755760405162461bcd60e51b81526004016104ec9061204d565b610622838383610cab565b6000828152600b602052604090206001015461069b81610e52565b6106228383610e5c565b60006106b083610942565b82106107125760405162461bcd60e51b815260206004820152602b60248201527f455243373231456e756d657261626c653a206f776e657220696e646578206f7560448201526a74206f6620626f756e647360a81b60648201526084016104ec565b506001600160a01b03919091166000908152600660209081526040808320938352929052205490565b6001600160a01b03811633146107ab5760405162461bcd60e51b815260206004820152602f60248201527f416363657373436f6e74726f6c3a2063616e206f6e6c792072656e6f756e636560448201526e103937b632b9903337b91039b2b63360891b60648201526084016104ec565b6107b58282610ee2565b5050565b6107e37f9f2df0fed2c77648de5860a4cc508cd0818c85b8b8a1ab4ceeef8d981c8956a6336109c9565b6107ec57600080fd5b6107fe816107f9600c5490565b610f49565b61080c600c80546001019055565b50565b61062283838360405180602001604052806000815250610a0e565b600061083560085490565b82106108985760405162461bcd60e51b815260206004820152602c60248201527f455243373231456e756d657261626c653a20676c6f62616c20696e646578206f60448201526b7574206f6620626f756e647360a01b60648201526084016104ec565b600882815481106108b957634e487b7160e01b600052603260045260246000fd5b90600052602060002001549050919050565b6000818152600260205260408120546001600160a01b0316806103ec5760405162461bcd60e51b815260206004820152602960248201527f4552433732313a206f776e657220717565727920666f72206e6f6e657869737460448201526832b73a103a37b5b2b760b91b60648201526084016104ec565b60006001600160a01b0382166109ad5760405162461bcd60e51b815260206004820152602a60248201527f4552433732313a2062616c616e636520717565727920666f7220746865207a65604482015269726f206164647265737360b01b60648201526084016104ec565b506001600160a01b031660009081526003602052604090205490565b6000918252600b602090815260408084206001600160a01b0393909316845291905290205460ff1690565b60606001805461040190612143565b6107b5338383610f63565b610a183383610bc1565b610a345760405162461bcd60e51b81526004016104ec9061204d565b610a4084848484611032565b50505050565b6000610a5160085490565b905090565b60606103ec82611065565b6000828152600b6020526040902060010154610a7c81610e52565b6106228383610ee2565b60006001600160e01b03198216637965db0b60e01b14806103ec57506103ec826111d4565b6000908152600260205260409020546001600160a01b0316151590565b600081815260046020526040902080546001600160a01b0319166001600160a01b0384169081179091558190610afd826108cb565b6001600160a01b03167f8c5be1e5ebec7d5bd14f71427d1e84f3dd0314c0f7b2291e5b200ac8c7c3b92560405160405180910390a45050565b610b3f82610aab565b610ba25760405162461bcd60e51b815260206004820152602e60248201527f45524337323155524953746f726167653a2055524920736574206f66206e6f6e60448201526d32bc34b9ba32b73a103a37b5b2b760911b60648201526084016104ec565b6000828152600a60209081526040909120825161062292840190611b7c565b6000610bcc82610aab565b610c2d5760405162461bcd60e51b815260206004820152602c60248201527f4552433732313a206f70657261746f7220717565727920666f72206e6f6e657860448201526b34b9ba32b73a103a37b5b2b760a11b60648201526084016104ec565b6000610c38836108cb565b9050806001600160a01b0316846001600160a01b03161480610c7f57506001600160a01b0380821660009081526005602090815260408083209388168352929052205460ff165b80610ca35750836001600160a01b0316610c9884610484565b6001600160a01b0316145b949350505050565b826001600160a01b0316610cbe826108cb565b6001600160a01b031614610d225760405162461bcd60e51b815260206004820152602560248201527f4552433732313a207472616e736665722066726f6d20696e636f72726563742060448201526437bbb732b960d91b60648201526084016104ec565b6001600160a01b038216610d845760405162461bcd60e51b8152602060048201526024808201527f4552433732313a207472616e7366657220746f20746865207a65726f206164646044820152637265737360e01b60648201526084016104ec565b610d8f8383836111f9565b610d9a600082610ac8565b6001600160a01b0383166000908152600360205260408120805460019290610dc39084906120e9565b90915550506001600160a01b0382166000908152600360205260408120805460019290610df190849061209e565b909155505060008181526002602052604080822080546001600160a01b0319166001600160a01b0386811691821790925591518493918716917fddf252ad1be2c89b69c2b068fc378daa952ba7f163c4a11628f55a4df523b3ef91a4505050565b61080c8133611204565b610e6682826109c9565b6107b5576000828152600b602090815260408083206001600160a01b03851684529091529020805460ff19166001179055610e9e3390565b6001600160a01b0316816001600160a01b0316837f2f8788117e7eff1d82e926ec794901d17c78024a50270940304540a733656f0d60405160405180910390a45050565b610eec82826109c9565b156107b5576000828152600b602090815260408083206001600160a01b0385168085529252808320805460ff1916905551339285917ff6391f5c32d9c69d2a47ea670b442974b53935d1edc7fd64eb21e047a839171b9190a45050565b6107b5828260405180602001604052806000815250611268565b816001600160a01b0316836001600160a01b03161415610fc55760405162461bcd60e51b815260206004820152601960248201527f4552433732313a20617070726f766520746f2063616c6c65720000000000000060448201526064016104ec565b6001600160a01b03838116600081815260056020908152604080832094871680845294825291829020805460ff191686151590811790915591519182527f17307eab39ab6107e8899845ad3d59bd9653f200f220920489ca2b5937696c31910160405180910390a3505050565b61103d848484610cab565b6110498484848461129b565b610a405760405162461bcd60e51b81526004016104ec90611ffb565b606061107082610aab565b6110d65760405162461bcd60e51b815260206004820152603160248201527f45524337323155524953746f726167653a2055524920717565727920666f72206044820152703737b732bc34b9ba32b73a103a37b5b2b760791b60648201526084016104ec565b6000828152600a6020526040812080546110ef90612143565b80601f016020809104026020016040519081016040528092919081815260200182805461111b90612143565b80156111685780601f1061113d57610100808354040283529160200191611168565b820191906000526020600020905b81548152906001019060200180831161114b57829003601f168201915b50505050509050600061118660408051602081019091526000815290565b9050805160001415611199575092915050565b8151156111cb5780826040516020016111b3929190611f07565b60405160208183030381529060405292505050919050565b610ca3846113a8565b60006001600160e01b0319821663780e9d6360e01b14806103ec57506103ec8261147f565b6106228383836114cf565b61120e82826109c9565b6107b557611226816001600160a01b03166014611587565b611231836020611587565b604051602001611242929190611f36565b60408051601f198184030181529082905262461bcd60e51b82526104ec91600401611fe8565b6112728383611769565b61127f600084848461129b565b6106225760405162461bcd60e51b81526004016104ec90611ffb565b60006001600160a01b0384163b1561139d57604051630a85bd0160e11b81526001600160a01b0385169063150b7a02906112df903390899088908890600401611fab565b602060405180830381600087803b1580156112f957600080fd5b505af1925050508015611329575060408051601f3d908101601f1916820190925261132691810190611ebf565b60015b611383573d808015611357576040519150601f19603f3d011682016040523d82523d6000602084013e61135c565b606091505b50805161137b5760405162461bcd60e51b81526004016104ec90611ffb565b805181602001fd5b6001600160e01b031916630a85bd0160e11b149050610ca3565b506001949350505050565b60606113b382610aab565b6114175760405162461bcd60e51b815260206004820152602f60248201527f4552433732314d657461646174613a2055524920717565727920666f72206e6f60448201526e3732bc34b9ba32b73a103a37b5b2b760891b60648201526084016104ec565b600061142e60408051602081019091526000815290565b9050600081511161144e5760405180602001604052806000815250610648565b80611458846118a8565b604051602001611469929190611f07565b6040516020818303038152906040529392505050565b60006001600160e01b031982166380ac58cd60e01b14806114b057506001600160e01b03198216635b5e139f60e01b145b806103ec57506301ffc9a760e01b6001600160e01b03198316146103ec565b6001600160a01b03831661152a5761152581600880546000838152600960205260408120829055600182018355919091527ff3f7a9fe364faab93b216da50a3214154f22a0a2b415b23a84c8169e8b636ee30155565b61154d565b816001600160a01b0316836001600160a01b03161461154d5761154d83826119c2565b6001600160a01b0382166115645761062281611a5f565b826001600160a01b0316826001600160a01b031614610622576106228282611b38565b606060006115968360026120ca565b6115a190600261209e565b67ffffffffffffffff8111156115c757634e487b7160e01b600052604160045260246000fd5b6040519080825280601f01601f1916602001820160405280156115f1576020820181803683370190505b509050600360fc1b8160008151811061161a57634e487b7160e01b600052603260045260246000fd5b60200101906001600160f81b031916908160001a905350600f60fb1b8160018151811061165757634e487b7160e01b600052603260045260246000fd5b60200101906001600160f81b031916908160001a905350600061167b8460026120ca565b61168690600161209e565b90505b600181111561171a576f181899199a1a9b1b9c1cb0b131b232b360811b85600f16601081106116c857634e487b7160e01b600052603260045260246000fd5b1a60f81b8282815181106116ec57634e487b7160e01b600052603260045260246000fd5b60200101906001600160f81b031916908160001a90535060049490941c936117138161212c565b9050611689565b5083156106485760405162461bcd60e51b815260206004820181905260248201527f537472696e67733a20686578206c656e67746820696e73756666696369656e7460448201526064016104ec565b6001600160a01b0382166117bf5760405162461bcd60e51b815260206004820181905260248201527f4552433732313a206d696e7420746f20746865207a65726f206164647265737360448201526064016104ec565b6117c881610aab565b156118155760405162461bcd60e51b815260206004820152601c60248201527f4552433732313a20746f6b656e20616c7265616479206d696e7465640000000060448201526064016104ec565b611821600083836111f9565b6001600160a01b038216600090815260036020526040812080546001929061184a90849061209e565b909155505060008181526002602052604080822080546001600160a01b0319166001600160a01b03861690811790915590518392907fddf252ad1be2c89b69c2b068fc378daa952ba7f163c4a11628f55a4df523b3ef908290a45050565b6060816118cc5750506040805180820190915260018152600360fc1b602082015290565b8160005b81156118f657806118e08161217e565b91506118ef9050600a836120b6565b91506118d0565b60008167ffffffffffffffff81111561191f57634e487b7160e01b600052604160045260246000fd5b6040519080825280601f01601f191660200182016040528015611949576020820181803683370190505b5090505b8415610ca35761195e6001836120e9565b915061196b600a86612199565b61197690603061209e565b60f81b81838151811061199957634e487b7160e01b600052603260045260246000fd5b60200101906001600160f81b031916908160001a9053506119bb600a866120b6565b945061194d565b600060016119cf84610942565b6119d991906120e9565b600083815260076020526040902054909150808214611a2c576001600160a01b03841660009081526006602090815260408083208584528252808320548484528184208190558352600790915290208190555b5060009182526007602090815260408084208490556001600160a01b039094168352600681528383209183525290812055565b600854600090611a71906001906120e9565b60008381526009602052604081205460088054939450909284908110611aa757634e487b7160e01b600052603260045260246000fd5b906000526020600020015490508060088381548110611ad657634e487b7160e01b600052603260045260246000fd5b6000918252602080832090910192909255828152600990915260408082208490558582528120556008805480611b1c57634e487b7160e01b600052603160045260246000fd5b6001900381819060005260206000200160009055905550505050565b6000611b4383610942565b6001600160a01b039093166000908152600660209081526040808320868452825280832085905593825260079052919091209190915550565b828054611b8890612143565b90600052602060002090601f016020900481019282611baa5760008555611bf0565b82601f10611bc357805160ff1916838001178555611bf0565b82800160010185558215611bf0579182015b82811115611bf0578251825591602001919060010190611bd5565b50611bfc929150611c00565b5090565b5b80821115611bfc5760008155600101611c01565b600067ffffffffffffffff80841115611c3057611c306121d9565b604051601f8501601f19908116603f01168101908282118183101715611c5857611c586121d9565b81604052809350858152868686011115611c7157600080fd5b858560208301376000602087830101525050509392505050565b80356001600160a01b0381168114611ca257600080fd5b919050565b600060208284031215611cb8578081fd5b61064882611c8b565b60008060408385031215611cd3578081fd5b611cdc83611c8b565b9150611cea60208401611c8b565b90509250929050565b600080600060608486031215611d07578081fd5b611d1084611c8b565b9250611d1e60208501611c8b565b9150604084013590509250925092565b60008060008060808587031215611d43578081fd5b611d4c85611c8b565b9350611d5a60208601611c8b565b925060408501359150606085013567ffffffffffffffff811115611d7c578182fd5b8501601f81018713611d8c578182fd5b611d9b87823560208401611c15565b91505092959194509250565b60008060408385031215611db9578182fd5b611dc283611c8b565b915060208301358015158114611dd6578182fd5b809150509250929050565b60008060408385031215611df3578182fd5b611dfc83611c8b565b9150602083013567ffffffffffffffff811115611e17578182fd5b8301601f81018513611e27578182fd5b611e3685823560208401611c15565b9150509250929050565b60008060408385031215611e52578182fd5b611e5b83611c8b565b946020939093013593505050565b600060208284031215611e7a578081fd5b5035919050565b60008060408385031215611e93578182fd5b82359150611cea60208401611c8b565b600060208284031215611eb4578081fd5b8135610648816121ef565b600060208284031215611ed0578081fd5b8151610648816121ef565b60008151808452611ef3816020860160208601612100565b601f01601f19169290920160200192915050565b60008351611f19818460208801612100565b835190830190611f2d818360208801612100565b01949350505050565b7f416363657373436f6e74726f6c3a206163636f756e7420000000000000000000815260008351611f6e816017850160208801612100565b7001034b99036b4b9b9b4b733903937b6329607d1b6017918401918201528351611f9f816028840160208801612100565b01602801949350505050565b6001600160a01b0385811682528416602082015260408101839052608060608201819052600090611fde90830184611edb565b9695505050505050565b6020815260006106486020830184611edb565b60208082526032908201527f4552433732313a207472616e7366657220746f206e6f6e20455243373231526560408201527131b2b4bb32b91034b6b83632b6b2b73a32b960711b606082015260800190565b60208082526031908201527f4552433732313a207472616e736665722063616c6c6572206973206e6f74206f6040820152701ddb995c881b9bdc88185c1c1c9bdd9959607a1b606082015260800190565b600082198211156120b1576120b16121ad565b500190565b6000826120c5576120c56121c3565b500490565b60008160001904831182151516156120e4576120e46121ad565b500290565b6000828210156120fb576120fb6121ad565b500390565b60005b8381101561211b578181015183820152602001612103565b83811115610a405750506000910152565b60008161213b5761213b6121ad565b506000190190565b600181811c9082168061215757607f821691505b6020821081141561217857634e487b7160e01b600052602260045260246000fd5b50919050565b6000600019821415612192576121926121ad565b5060010190565b6000826121a8576121a86121c3565b500690565b634e487b7160e01b600052601160045260246000fd5b634e487b7160e01b600052601260045260246000fd5b634e487b7160e01b600052604160045260246000fd5b6001600160e01b03198116811461080c57600080fdfea2646970667358221220dc3881bd265400374f203dbeda713ec74a9b841c37a86de428184c428ac4f40564736f6c63430008040033",
  "linkReferences": {},
  "deployedLinkReferences": {}
}