{
  "_format": "hh-sol-artifact-1",
  "contractName": "Lottery",
  "sourceName": "contracts/Lottery.sol",
  "abi": [
    {
      "inputs": [
        {
          "internalType": "contract BuddhaNft",
          "name": "_buddhaNft",
          "type": "address"
        },
        {
          "internalType": "contract StrawberryToken",
          "name": "_sbtToken",
          "type": "address"
        },
        {
          "internalType": "contract IERC20",
          "name": "_linkToken",
          "type": "address"
        },
        {
          "internalType": "address",
          "name": "_coorAddress",
          "type": "address"
        },
        {
          "internalType": "address",
          "name": "_linkAddress",
          "type": "address"
        },
        {
          "internalType": "uint256",
          "name": "_fee",
          "type": "uint256"
        },
        {
          "internalType": "bytes32",
          "name": "_keyHash",
          "type": "bytes32"
        }
      ],
      "stateMutability": "nonpayable",
      "type": "constructor"
    },
    {
      "anonymous": false,
      "inputs": [
        {
          "indexed": true,
          "internalType": "address",
          "name": "winner",
          "type": "address"
        },
        {
          "indexed": true,
          "internalType": "uint256",
          "name": "amount",
          "type": "uint256"
        }
      ],
      "name": "LotteryClaim",
      "type": "event"
    },
    {
      "anonymous": false,
      "inputs": [
        {
          "indexed": true,
          "internalType": "uint256",
          "name": "_lotteryCount",
          "type": "uint256"
        },
        {
          "indexed": true,
          "internalType": "bytes32",
          "name": "_requestId",
          "type": "bytes32"
        }
      ],
      "name": "LotteryStart",
      "type": "event"
    },
    {
      "anonymous": false,
      "inputs": [
        {
          "indexed": true,
          "internalType": "bytes32",
          "name": "_requestId",
          "type": "bytes32"
        },
        {
          "indexed": true,
          "internalType": "uint256",
          "name": "_winningNumber",
          "type": "uint256"
        }
      ],
      "name": "NumberReceived",
      "type": "event"
    },
    {
      "anonymous": false,
      "inputs": [
        {
          "indexed": true,
          "internalType": "address",
          "name": "previousOwner",
          "type": "address"
        },
        {
          "indexed": true,
          "internalType": "address",
          "name": "newOwner",
          "type": "address"
        }
      ],
      "name": "OwnershipTransferred",
      "type": "event"
    },
    {
      "anonymous": false,
      "inputs": [
        {
          "indexed": true,
          "internalType": "address",
          "name": "from",
          "type": "address"
        },
        {
          "indexed": true,
          "internalType": "uint256",
          "name": "amount",
          "type": "uint256"
        }
      ],
      "name": "WithdrawLink",
      "type": "event"
    },
    {
      "inputs": [
        {
          "internalType": "address",
          "name": "from",
          "type": "address"
        },
        {
          "internalType": "uint256",
          "name": "sbt",
          "type": "uint256"
        }
      ],
      "name": "addToLotteryPool",
      "outputs": [],
      "stateMutability": "nonpayable",
      "type": "function"
    },
    {
      "inputs": [],
      "name": "buddhaNft",
      "outputs": [
        {
          "internalType": "contract BuddhaNft",
          "name": "",
          "type": "address"
        }
      ],
      "stateMutability": "view",
      "type": "function"
    },
    {
      "inputs": [],
      "name": "claimLottoWinnings",
      "outputs": [],
      "stateMutability": "nonpayable",
      "type": "function"
    },
    {
      "inputs": [],
      "name": "getLinkBalance",
      "outputs": [
        {
          "internalType": "uint256",
          "name": "",
          "type": "uint256"
        }
      ],
      "stateMutability": "view",
      "type": "function"
    },
    {
      "inputs": [],
      "name": "getWinningNumber",
      "outputs": [],
      "stateMutability": "nonpayable",
      "type": "function"
    },
    {
      "inputs": [],
      "name": "linkToken",
      "outputs": [
        {
          "internalType": "contract IERC20",
          "name": "",
          "type": "address"
        }
      ],
      "stateMutability": "view",
      "type": "function"
    },
    {
      "inputs": [],
      "name": "lotteryCount",
      "outputs": [
        {
          "internalType": "uint256",
          "name": "",
          "type": "uint256"
        }
      ],
      "stateMutability": "view",
      "type": "function"
    },
    {
      "inputs": [],
      "name": "owner",
      "outputs": [
        {
          "internalType": "address",
          "name": "",
          "type": "address"
        }
      ],
      "stateMutability": "view",
      "type": "function"
    },
    {
      "inputs": [
        {
          "internalType": "bytes32",
          "name": "requestId",
          "type": "bytes32"
        },
        {
          "internalType": "uint256",
          "name": "randomness",
          "type": "uint256"
        }
      ],
      "name": "rawFulfillRandomness",
      "outputs": [],
      "stateMutability": "nonpayable",
      "type": "function"
    },
    {
      "inputs": [],
      "name": "renounceOwnership",
      "outputs": [],
      "stateMutability": "nonpayable",
      "type": "function"
    },
    {
      "inputs": [
        {
          "internalType": "bytes32",
          "name": "",
          "type": "bytes32"
        }
      ],
      "name": "requestIdToCount",
      "outputs": [
        {
          "internalType": "uint256",
          "name": "",
          "type": "uint256"
        }
      ],
      "stateMutability": "view",
      "type": "function"
    },
    {
      "inputs": [],
      "name": "sbtToken",
      "outputs": [
        {
          "internalType": "contract StrawberryToken",
          "name": "",
          "type": "address"
        }
      ],
      "stateMutability": "view",
      "type": "function"
    },
    {
      "inputs": [
        {
          "internalType": "address",
          "name": "newOwner",
          "type": "address"
        }
      ],
      "name": "transferOwnership",
      "outputs": [],
      "stateMutability": "nonpayable",
      "type": "function"
    },
    {
      "inputs": [
        {
          "internalType": "uint256",
          "name": "",
          "type": "uint256"
        }
      ],
      "name": "winningNumber",
      "outputs": [
        {
          "internalType": "uint256",
          "name": "",
          "type": "uint256"
        }
      ],
      "stateMutability": "view",
      "type": "function"
    },
    {
      "inputs": [],
      "name": "withdrawLink",
      "outputs": [],
      "stateMutability": "nonpayable",
      "type": "function"
    }
  ],
  "bytecode": "0x60c06040523480156200001157600080fd5b5060405162001030380380620010308339810160408190526200003491620000fa565b83836200004133620000aa565b606091821b6001600160601b031990811660a052911b16608052600680546001600160a01b03199081166001600160a01b03998a1617909155600780548216978916979097179096556008805490961694909616939093179093555060045550600555620001a5565b600080546001600160a01b038381166001600160a01b0319831681178455604051919092169283917f8be0079c531659141344cd1fd0a4f28419497f9722a3daafe3b4186f6b6457e09190a35050565b600080600080600080600060e0888a03121562000115578283fd5b875162000122816200018c565b602089015190975062000135816200018c565b604089015190965062000148816200018c565b60608901519095506200015b816200018c565b60808901519094506200016e816200018c565b8093505060a0880151915060c0880151905092959891949750929550565b6001600160a01b0381168114620001a257600080fd5b50565b60805160601c60a05160601c610e58620001d8600039600081816106ed0152610acd01526000610a9e0152610e586000f3fe608060405234801561001057600080fd5b50600436106100f55760003560e01c80638dc654a211610097578063c7d59d7511610066578063c7d59d75146101c2578063c8aff320146101e2578063e359d997146101f5578063f2fde38b1461020857600080fd5b80638dc654a21461017e57806394985ddd14610186578063b8b81e4014610199578063c6f6d9d9146101b957600080fd5b8063715018a6116100d3578063715018a6146101555780638ac05f921461015d5780638b0b9ed4146101655780638da5cb5b1461016d57600080fd5b806350c5f975146100fa57806357714c3e1461011557806357970e931461012a575b600080fd5b61010261021b565b6040519081526020015b60405180910390f35b610128610123366004610c69565b61029c565b005b60085461013d906001600160a01b031681565b6040516001600160a01b03909116815260200161010c565b61012861038b565b6101286103c1565b6101286104fb565b6000546001600160a01b031661013d565b610128610586565b610128610194366004610cca565b6106e2565b6101026101a7366004610cb2565b60096020526000908152604090205481565b61010260035481565b6101026101d0366004610cb2565b600a6020526000908152604090205481565b60065461013d906001600160a01b031681565b60075461013d906001600160a01b031681565b610128610216366004610c48565b610768565b6008546040516370a0823160e01b81523060048201526000916001600160a01b0316906370a082319060240160206040518083038186803b15801561025f57600080fd5b505afa158015610273573d6000803e3d6000fd5b505050506040513d601f19601f820116820180604052508101906102979190610ceb565b905090565b600081116102e35760405162461bcd60e51b815260206004820152600f60248201526e43616e6e6f7420616464207a65726f60881b60448201526064015b60405180910390fd5b80600260008282546102f59190610da2565b90915550506007546040516323b872dd60e01b81526001600160a01b03848116600483015230602483015260448201849052909116906323b872dd90606401602060405180830381600087803b15801561034e57600080fd5b505af1158015610362573d6000803e3d6000fd5b505050506040513d601f19601f820116820180604052508101906103869190610c92565b505050565b6000546001600160a01b031633146103b55760405162461bcd60e51b81526004016102da90610d6d565b6103bf6000610803565b565b6103ca33610853565b80156103d857506000600254115b61043d5760405162461bcd60e51b815260206004820152603060248201527f596f752065697468657220646964206e6f742077696e206f72206e6f7468696e60448201526f19c81a5b881b1bdd1d195c9e541bdbdb60821b60648201526084016102da565b60028054600090915560075460405163a9059cbb60e01b8152336004820152602481018390526001600160a01b039091169063a9059cbb90604401602060405180830381600087803b15801561049257600080fd5b505af11580156104a6573d6000803e3d6000fd5b505050506040513d601f19601f820116820180604052508101906104ca9190610c92565b50604051819033907f54e4d435edfc4d840024a9bbc857ff78e168dc9e3a47975a08983a2c0758568c90600090a350565b6000546001600160a01b031633146105255760405162461bcd60e51b81526004016102da90610d6d565b600061052f6109af565b6003546000828152600a60205260408082208390555192935083927fc8453365fa195e9b51ea141dc9b600e817ba52d8c91f04900b712f29c3549be59190a36003805490600061057e83610dd1565b919050555050565b6000546001600160a01b031633146105b05760405162461bcd60e51b81526004016102da90610d6d565b6008546040516370a0823160e01b81523060048201526000916001600160a01b0316906370a082319060240160206040518083038186803b1580156105f457600080fd5b505afa158015610608573d6000803e3d6000fd5b505050506040513d601f19601f8201168201806040525081019061062c9190610ceb565b60085460405163a9059cbb60e01b8152336004820152602481018390529192506001600160a01b03169063a9059cbb90604401602060405180830381600087803b15801561067957600080fd5b505af115801561068d573d6000803e3d6000fd5b505050506040513d601f19601f820116820180604052508101906106b19190610c92565b50604051819033907f12b25b675c326f2373fa9b6e2d394dcfb471baa7c0fe8df426279c2a3d77c4a890600090a350565b336001600160a01b037f0000000000000000000000000000000000000000000000000000000000000000161461075a5760405162461bcd60e51b815260206004820152601f60248201527f4f6e6c7920565246436f6f7264696e61746f722063616e2066756c66696c6c0060448201526064016102da565b61076482826109bf565b5050565b6000546001600160a01b031633146107925760405162461bcd60e51b81526004016102da90610d6d565b6001600160a01b0381166107f75760405162461bcd60e51b815260206004820152602660248201527f4f776e61626c653a206e6577206f776e657220697320746865207a65726f206160448201526564647265737360d01b60648201526084016102da565b61080081610803565b50565b600080546001600160a01b038381166001600160a01b0319831681178455604051919092169283917f8be0079c531659141344cd1fd0a4f28419497f9722a3daafe3b4186f6b6457e09190a35050565b6006546040516370a0823160e01b81526001600160a01b03838116600483015260009283929116906370a082319060240160206040518083038186803b15801561089c57600080fd5b505afa1580156108b0573d6000803e3d6000fd5b505050506040513d601f19601f820116820180604052508101906108d49190610ceb565b905060006009600060016003546108eb9190610dba565b815260200190815260200160002054905060005b828110156109a457600654604051632f745c5960e01b81526001600160a01b0387811660048301526024820184905284921690632f745c599060440160206040518083038186803b15801561095357600080fd5b505afa158015610967573d6000803e3d6000fd5b505050506040513d601f19601f8201168201806040525081019061098b9190610ceb565b141561099c57506001949350505050565b6001016108ff565b506000949350505050565b6000610297600554600454610a9a565b600654604080516362720d9160e11b815290516000926001600160a01b03169163c4e41b22916004808301926020929190829003018186803b158015610a0457600080fd5b505afa158015610a18573d6000803e3d6000fd5b505050506040513d601f19601f82011682018060405250810190610a3c9190610ceb565b90506000610a4a8284610dec565b6000858152600a60209081526040808320548352600990915280822083905551919250829186917fe5d62159d150df9ef19174bcdaefd204027b471475b976a0be0ee3e9f31f547291a350505050565b60007f00000000000000000000000000000000000000000000000000000000000000006001600160a01b0316634000aea07f000000000000000000000000000000000000000000000000000000000000000084866000604051602001610b0a929190918252602082015260400190565b6040516020818303038152906040526040518463ffffffff1660e01b8152600401610b3793929190610d03565b602060405180830381600087803b158015610b5157600080fd5b505af1158015610b65573d6000803e3d6000fd5b505050506040513d601f19601f82011682018060405250810190610b899190610c92565b50600083815260016020818152604080842054815180840189905280830186905230606082015260808082018390528351808303909101815260a09091019092528151918301919091209387905290829052610be491610da2565b600085815260016020526040902055610c248482604080516020808201949094528082019290925280518083038201815260609092019052805191012090565b949350505050565b80356001600160a01b0381168114610c4357600080fd5b919050565b600060208284031215610c59578081fd5b610c6282610c2c565b9392505050565b60008060408385031215610c7b578081fd5b610c8483610c2c565b946020939093013593505050565b600060208284031215610ca3578081fd5b81518015158114610c62578182fd5b600060208284031215610cc3578081fd5b5035919050565b60008060408385031215610cdc578182fd5b50508035926020909101359150565b600060208284031215610cfc578081fd5b5051919050565b60018060a01b0384168152600060208481840152606060408401528351806060850152825b81811015610d4457858101830151858201608001528201610d28565b81811115610d555783608083870101525b50601f01601f19169290920160800195945050505050565b6020808252818101527f4f776e61626c653a2063616c6c6572206973206e6f7420746865206f776e6572604082015260600190565b60008219821115610db557610db5610e0c565b500190565b600082821015610dcc57610dcc610e0c565b500390565b6000600019821415610de557610de5610e0c565b5060010190565b600082610e0757634e487b7160e01b81526012600452602481fd5b500690565b634e487b7160e01b600052601160045260246000fdfea2646970667358221220c8aa0dd7a3db60dce27cdc40bc599441c4d65d0457fcd6b4cf0298f616ad179f64736f6c63430008040033",
  "linkReferences": {},
  "deployedLinkReferences": {}
}