{
  "_format": "hh-sol-artifact-1",
  "contractName": "StrawberryFarm",
  "sourceName": "contracts/StrawberryFarm.sol",
  "abi": [
    {
      "inputs": [
        {
          "internalType": "contract IERC20",
          "name": "_daiToken",
          "type": "address"
        },
        {
          "internalType": "contract StrawberryToken",
          "name": "_sbtToken",
          "type": "address"
        },
        {
          "internalType": "contract BuddhaNft",
          "name": "_buddhaNft",
          "type": "address"
        },
        {
          "internalType": "contract Lottery",
          "name": "_lottery",
          "type": "address"
        },
        {
          "internalType": "uint256",
          "name": "_nftPrice",
          "type": "uint256"
        }
      ],
      "stateMutability": "nonpayable",
      "type": "constructor"
    },
    {
      "anonymous": false,
      "inputs": [
        {
          "indexed": true,
          "internalType": "address",
          "name": "to",
          "type": "address"
        },
        {
          "indexed": true,
          "internalType": "uint256",
          "name": "tokenId",
          "type": "uint256"
        }
      ],
      "name": "MintNFT",
      "type": "event"
    },
    {
      "anonymous": false,
      "inputs": [
        {
          "indexed": true,
          "internalType": "address",
          "name": "from",
          "type": "address"
        },
        {
          "indexed": false,
          "internalType": "uint256",
          "name": "amount",
          "type": "uint256"
        }
      ],
      "name": "Stake",
      "type": "event"
    },
    {
      "anonymous": false,
      "inputs": [
        {
          "indexed": true,
          "internalType": "address",
          "name": "from",
          "type": "address"
        },
        {
          "indexed": false,
          "internalType": "uint256",
          "name": "amount",
          "type": "uint256"
        }
      ],
      "name": "Unstake",
      "type": "event"
    },
    {
      "anonymous": false,
      "inputs": [
        {
          "indexed": true,
          "internalType": "address",
          "name": "to",
          "type": "address"
        },
        {
          "indexed": false,
          "internalType": "uint256",
          "name": "amount",
          "type": "uint256"
        }
      ],
      "name": "YieldWithdraw",
      "type": "event"
    },
    {
      "inputs": [],
      "name": "buddhaNft",
      "outputs": [
        {
          "internalType": "contract BuddhaNft",
          "name": "",
          "type": "address"
        }
      ],
      "stateMutability": "view",
      "type": "function"
    },
    {
      "inputs": [
        {
          "internalType": "address",
          "name": "user",
          "type": "address"
        }
      ],
      "name": "calculateYieldTime",
      "outputs": [
        {
          "internalType": "uint256",
          "name": "",
          "type": "uint256"
        }
      ],
      "stateMutability": "view",
      "type": "function"
    },
    {
      "inputs": [
        {
          "internalType": "address",
          "name": "user",
          "type": "address"
        }
      ],
      "name": "calculateYieldTotal",
      "outputs": [
        {
          "internalType": "uint256",
          "name": "",
          "type": "uint256"
        }
      ],
      "stateMutability": "view",
      "type": "function"
    },
    {
      "inputs": [],
      "name": "daiToken",
      "outputs": [
        {
          "internalType": "contract IERC20",
          "name": "",
          "type": "address"
        }
      ],
      "stateMutability": "view",
      "type": "function"
    },
    {
      "inputs": [
        {
          "internalType": "address",
          "name": "",
          "type": "address"
        }
      ],
      "name": "isStaking",
      "outputs": [
        {
          "internalType": "bool",
          "name": "",
          "type": "bool"
        }
      ],
      "stateMutability": "view",
      "type": "function"
    },
    {
      "inputs": [],
      "name": "lottery",
      "outputs": [
        {
          "internalType": "contract Lottery",
          "name": "",
          "type": "address"
        }
      ],
      "stateMutability": "view",
      "type": "function"
    },
    {
      "inputs": [
        {
          "internalType": "address",
          "name": "user",
          "type": "address"
        },
        {
          "internalType": "string",
          "name": "tokenURI",
          "type": "string"
        }
      ],
      "name": "mintNFT",
      "outputs": [],
      "stateMutability": "nonpayable",
      "type": "function"
    },
    {
      "inputs": [],
      "name": "name",
      "outputs": [
        {
          "internalType": "string",
          "name": "",
          "type": "string"
        }
      ],
      "stateMutability": "view",
      "type": "function"
    },
    {
      "inputs": [
        {
          "internalType": "string",
          "name": "",
          "type": "string"
        }
      ],
      "name": "nftCount",
      "outputs": [
        {
          "internalType": "uint256",
          "name": "",
          "type": "uint256"
        }
      ],
      "stateMutability": "view",
      "type": "function"
    },
    {
      "inputs": [
        {
          "internalType": "address",
          "name": "",
          "type": "address"
        }
      ],
      "name": "sbtBalance",
      "outputs": [
        {
          "internalType": "uint256",
          "name": "",
          "type": "uint256"
        }
      ],
      "stateMutability": "view",
      "type": "function"
    },
    {
      "inputs": [],
      "name": "sbtToken",
      "outputs": [
        {
          "internalType": "contract StrawberryToken",
          "name": "",
          "type": "address"
        }
      ],
      "stateMutability": "view",
      "type": "function"
    },
    {
      "inputs": [
        {
          "internalType": "uint256",
          "name": "amount",
          "type": "uint256"
        }
      ],
      "name": "stake",
      "outputs": [],
      "stateMutability": "nonpayable",
      "type": "function"
    },
    {
      "inputs": [
        {
          "internalType": "address",
          "name": "",
          "type": "address"
        }
      ],
      "name": "stakingBalance",
      "outputs": [
        {
          "internalType": "uint256",
          "name": "",
          "type": "uint256"
        }
      ],
      "stateMutability": "view",
      "type": "function"
    },
    {
      "inputs": [
        {
          "internalType": "address",
          "name": "",
          "type": "address"
        }
      ],
      "name": "startTime",
      "outputs": [
        {
          "internalType": "uint256",
          "name": "",
          "type": "uint256"
        }
      ],
      "stateMutability": "view",
      "type": "function"
    },
    {
      "inputs": [
        {
          "internalType": "uint256",
          "name": "amount",
          "type": "uint256"
        }
      ],
      "name": "unstake",
      "outputs": [],
      "stateMutability": "nonpayable",
      "type": "function"
    },
    {
      "inputs": [],
      "name": "withdrawYield",
      "outputs": [],
      "stateMutability": "nonpayable",
      "type": "function"
    }
  ],
  "bytecode": "0x60c06040526008608081905267534254204661726d60c01b60a09081526200002b9160059190620000b3565b503480156200003957600080fd5b50604051620010d7380380620010d78339810160408190526200005c9162000159565b600680546001600160a01b03199081166001600160a01b03978816179091556007805482169587169590951790945560088054851693861693909317909255600980549093169316929092179055600a5562000222565b828054620000c190620001cc565b90600052602060002090601f016020900481019282620000e5576000855562000130565b82601f106200010057805160ff191683800117855562000130565b8280016001018555821562000130579182015b828111156200013057825182559160200191906001019062000113565b506200013e92915062000142565b5090565b5b808211156200013e576000815560010162000143565b600080600080600060a0868803121562000171578081fd5b85516200017e8162000209565b6020870151909550620001918162000209565b6040870151909450620001a48162000209565b6060870151909350620001b78162000209565b80925050608086015190509295509295909350565b600181811c90821680620001e157607f821691505b602082108114156200020357634e487b7160e01b600052602260045260246000fd5b50919050565b6001600160a01b03811681146200021f57600080fd5b50565b610ea580620002326000396000f3fe608060405234801561001057600080fd5b50600436106101005760003560e01c8063980d611611610097578063c8aff32011610066578063c8aff32014610277578063e359d9971461028a578063e507a8a41461029d578063eacabe14146102a557600080fd5b8063980d611614610213578063a694fc3a14610226578063ba13a57214610239578063be22f5461461026457600080fd5b806345bc78ab116100d357806345bc78ab14610175578063518ea824146101955780636e1dc66e146101c05780636f49712b146101e057600080fd5b806305431db114610105578063068726611461013857806306fdde031461014b5780632e17de7814610160575b600080fd5b610125610113366004610be0565b60036020526000908152604090205481565b6040519081526020015b60405180910390f35b610125610146366004610be0565b6102b8565b61015361032e565b60405161012f9190610d3c565b61017361016e366004610ca0565b6103bc565b005b610125610183366004610be0565b60006020819052908152604090205481565b6101256101a3366004610c6d565b805160208183018101805160048252928201919093012091525481565b6101256101ce366004610be0565b60026020526000908152604090205481565b6102036101ee366004610be0565b60016020526000908152604090205460ff1681565b604051901515815260200161012f565b610125610221366004610be0565b61057a565b610173610234366004610ca0565b6105a9565b60095461024c906001600160a01b031681565b6040516001600160a01b03909116815260200161012f565b60065461024c906001600160a01b031681565b60085461024c906001600160a01b031681565b60075461024c906001600160a01b031681565b6101736107df565b6101736102b3366004610c01565b61092b565b6000806102c48361057a565b6102d690670de0b6b3a7640000610d87565b90506201518060006102e88284610d67565b6001600160a01b03861660009081526020819052604081205491925090670de0b6b3a76400009061031a908490610d87565b6103249190610d67565b9695505050505050565b6005805461033b90610ded565b80601f016020809104026020016040519081016040528092919081815260200182805461036790610ded565b80156103b45780601f10610389576101008083540402835291602001916103b4565b820191906000526020600020905b81548152906001019060200180831161039757829003601f168201915b505050505081565b33600090815260208181526040808320546001909252909120805460ff191691831115918217905561042a5760405162461bcd60e51b81526020600482015260126024820152714e6f7468696e6720746f20756e7374616b6560701b60448201526064015b60405180910390fd5b6000610435336102b8565b3360009081526002602090815260408083204290559082905281208054919492935082918590610466908490610da6565b909155505060065460405163a9059cbb60e01b8152336004820152602481018390526001600160a01b039091169063a9059cbb90604401602060405180830381600087803b1580156104b757600080fd5b505af11580156104cb573d6000803e3d6000fd5b505050506040513d601f19601f820116820180604052508101906104ef9190610c4d565b50336000908152600360205260408120805484929061050f908490610d4f565b90915550503360009081526020819052604090205461054057336000908152600160205260409020805460ff191690555b60405181815233907f85082129d87b2fe11527cb1b3b7a520aeb5aa6913f88a3d8757fe40d1db02fdd9060200160405180910390a2505050565b6001600160a01b038116600090815260026020526040812054429082906105a19083610da6565b949350505050565b60008111801561063257506006546040516370a0823160e01b815233600482015282916001600160a01b0316906370a082319060240160206040518083038186803b1580156105f757600080fd5b505afa15801561060b573d6000803e3d6000fd5b505050506040513d601f19601f8201168201806040525081019061062f9190610cb8565b10155b61067e5760405162461bcd60e51b815260206004820152601c60248201527f596f752063616e6e6f74207374616b65207a65726f20746f6b656e73000000006044820152606401610421565b3360009081526001602081905260409091205460ff16151514156106d25760006106a7336102b8565b336000908152600360205260408120805492935083929091906106cb908490610d4f565b9091555050505b6006546040516323b872dd60e01b8152336004820152306024820152604481018390526001600160a01b03909116906323b872dd90606401602060405180830381600087803b15801561072457600080fd5b505af1158015610738573d6000803e3d6000fd5b505050506040513d601f19601f8201168201806040525081019061075c9190610c4d565b50336000908152602081905260408120805483929061077c908490610d4f565b9091555050336000818152600260209081526040808320429055600180835292819020805460ff191690931790925590518381527febedb8b3c678666e7f36970bc8f57abf6d8fa2e828c0da91ea5b75bf68ed101a91015b60405180910390a250565b60006107ea336102b8565b9050600081118061080957503360009081526003602052604090205415155b61084b5760405162461bcd60e51b81526020600482015260136024820152724e6f7468696e6720746f20776974686472617760681b6044820152606401610421565b336000908152600360205260409020541561088257336000908152600360205260408120805491905561087e8183610d4f565b9150505b336000818152600260205260409081902042905560075490516340c10f1960e01b81526004810192909252602482018390526001600160a01b0316906340c10f1990604401600060405180830381600087803b1580156108e157600080fd5b505af11580156108f5573d6000803e3d6000fd5b50506040518381523392507f92044e3943309ee5950e21bc7421d02c1df75f0df33c0d97c1143687b49a4c5791506020016107d4565b600a546007546040516370a0823160e01b81523360048201526001600160a01b03909116906370a082319060240160206040518083038186803b15801561097157600080fd5b505afa158015610985573d6000803e3d6000fd5b505050506040513d601f19601f820116820180604052508101906109a99190610cb8565b10156109e85760405162461bcd60e51b815260206004820152600e60248201526d139bdd08195b9bdd59da0814d09560921b6044820152606401610421565b600954600a54604051632bb8a61f60e11b815233600482015260248101919091526001600160a01b03909116906357714c3e90604401600060405180830381600087803b158015610a3857600080fd5b505af1158015610a4c573d6000803e3d6000fd5b505060085460405163110bcd4560e01b8152600093506001600160a01b03909116915063110bcd4590610a859086908690600401610d18565b602060405180830381600087803b158015610a9f57600080fd5b505af1158015610ab3573d6000803e3d6000fd5b505050506040513d601f19601f82011682018060405250810190610ad79190610cb8565b9050600482604051610ae99190610cfc565b9081526040519081900360200190208054906000610b0683610e28565b9091555050604051819033907f1f89f147a58d1673945cf416187db98efc8208408c011b91887acd59fd8523c390600090a3505050565b80356001600160a01b0381168114610b5457600080fd5b919050565b600082601f830112610b69578081fd5b813567ffffffffffffffff80821115610b8457610b84610e59565b604051601f8301601f19908116603f01168101908282118183101715610bac57610bac610e59565b81604052838152866020858801011115610bc4578485fd5b8360208701602083013792830160200193909352509392505050565b600060208284031215610bf1578081fd5b610bfa82610b3d565b9392505050565b60008060408385031215610c13578081fd5b610c1c83610b3d565b9150602083013567ffffffffffffffff811115610c37578182fd5b610c4385828601610b59565b9150509250929050565b600060208284031215610c5e578081fd5b81518015158114610bfa578182fd5b600060208284031215610c7e578081fd5b813567ffffffffffffffff811115610c94578182fd5b6105a184828501610b59565b600060208284031215610cb1578081fd5b5035919050565b600060208284031215610cc9578081fd5b5051919050565b60008151808452610ce8816020860160208601610dbd565b601f01601f19169290920160200192915050565b60008251610d0e818460208701610dbd565b9190910192915050565b6001600160a01b03831681526040602082018190526000906105a190830184610cd0565b602081526000610bfa6020830184610cd0565b60008219821115610d6257610d62610e43565b500190565b600082610d8257634e487b7160e01b81526012600452602481fd5b500490565b6000816000190483118215151615610da157610da1610e43565b500290565b600082821015610db857610db8610e43565b500390565b60005b83811015610dd8578181015183820152602001610dc0565b83811115610de7576000848401525b50505050565b600181811c90821680610e0157607f821691505b60208210811415610e2257634e487b7160e01b600052602260045260246000fd5b50919050565b6000600019821415610e3c57610e3c610e43565b5060010190565b634e487b7160e01b600052601160045260246000fd5b634e487b7160e01b600052604160045260246000fdfea264697066735822122047fdfb63581c4b3c070e38454cd3c08397f798586af6767fffe2e22b9b89038164736f6c63430008040033",
  "linkReferences": {},
  "deployedLinkReferences": {}
}